{
  "_format": "hh-sol-artifact-1",
  "contractName": "MyOApp",
  "sourceName": "contracts/MyOApp.sol",
  "abi": [
    {
      "inputs": [
        {
          "internalType": "address",
          "name": "_endpoint",
          "type": "address"
        },
        {
          "internalType": "address",
          "name": "_delegate",
          "type": "address"
        }
      ],
      "stateMutability": "nonpayable",
      "type": "constructor"
    },
    {
      "inputs": [],
      "name": "InvalidDelegate",
      "type": "error"
    },
    {
      "inputs": [],
      "name": "InvalidEndpointCall",
      "type": "error"
    },
    {
      "inputs": [],
      "name": "LzTokenUnavailable",
      "type": "error"
    },
    {
      "inputs": [
        {
          "internalType": "uint32",
          "name": "eid",
          "type": "uint32"
        }
      ],
      "name": "NoPeer",
      "type": "error"
    },
    {
      "inputs": [
        {
          "internalType": "uint256",
          "name": "msgValue",
          "type": "uint256"
        }
      ],
      "name": "NotEnoughNative",
      "type": "error"
    },
    {
      "inputs": [
        {
          "internalType": "address",
          "name": "addr",
          "type": "address"
        }
      ],
      "name": "OnlyEndpoint",
      "type": "error"
    },
    {
      "inputs": [
        {
          "internalType": "uint32",
          "name": "eid",
          "type": "uint32"
        },
        {
          "internalType": "bytes32",
          "name": "sender",
          "type": "bytes32"
        }
      ],
      "name": "OnlyPeer",
      "type": "error"
    },
    {
      "inputs": [
        {
          "internalType": "address",
          "name": "owner",
          "type": "address"
        }
      ],
      "name": "OwnableInvalidOwner",
      "type": "error"
    },
    {
      "inputs": [
        {
          "internalType": "address",
          "name": "account",
          "type": "address"
        }
      ],
      "name": "OwnableUnauthorizedAccount",
      "type": "error"
    },
    {
      "inputs": [
        {
          "internalType": "address",
          "name": "token",
          "type": "address"
        }
      ],
      "name": "SafeERC20FailedOperation",
      "type": "error"
    },
    {
      "anonymous": false,
      "inputs": [
        {
          "indexed": true,
          "internalType": "address",
          "name": "previousOwner",
          "type": "address"
        },
        {
          "indexed": true,
          "internalType": "address",
          "name": "newOwner",
          "type": "address"
        }
      ],
      "name": "OwnershipTransferred",
      "type": "event"
    },
    {
      "anonymous": false,
      "inputs": [
        {
          "indexed": false,
          "internalType": "uint32",
          "name": "eid",
          "type": "uint32"
        },
        {
          "indexed": false,
          "internalType": "bytes32",
          "name": "peer",
          "type": "bytes32"
        }
      ],
      "name": "PeerSet",
      "type": "event"
    },
    {
      "anonymous": false,
      "inputs": [
        {
          "indexed": false,
          "internalType": "string",
          "name": "message",
          "type": "string"
        }
      ],
      "name": "ReceivedHelloWorld",
      "type": "event"
    },
    {
      "inputs": [
        {
          "components": [
            {
              "internalType": "uint32",
              "name": "srcEid",
              "type": "uint32"
            },
            {
              "internalType": "bytes32",
              "name": "sender",
              "type": "bytes32"
            },
            {
              "internalType": "uint64",
              "name": "nonce",
              "type": "uint64"
            }
          ],
          "internalType": "struct Origin",
          "name": "origin",
          "type": "tuple"
        }
      ],
      "name": "allowInitializePath",
      "outputs": [
        {
          "internalType": "bool",
          "name": "",
          "type": "bool"
        }
      ],
      "stateMutability": "view",
      "type": "function"
    },
    {
      "inputs": [],
      "name": "data",
      "outputs": [
        {
          "internalType": "string",
          "name": "",
          "type": "string"
        }
      ],
      "stateMutability": "view",
      "type": "function"
    },
    {
      "inputs": [],
      "name": "endpoint",
      "outputs": [
        {
          "internalType": "contract ILayerZeroEndpointV2",
          "name": "",
          "type": "address"
        }
      ],
      "stateMutability": "view",
      "type": "function"
    },
    {
      "inputs": [
        {
          "components": [
            {
              "internalType": "uint32",
              "name": "srcEid",
              "type": "uint32"
            },
            {
              "internalType": "bytes32",
              "name": "sender",
              "type": "bytes32"
            },
            {
              "internalType": "uint64",
              "name": "nonce",
              "type": "uint64"
            }
          ],
          "internalType": "struct Origin",
          "name": "",
          "type": "tuple"
        },
        {
          "internalType": "bytes",
          "name": "",
          "type": "bytes"
        },
        {
          "internalType": "address",
          "name": "_sender",
          "type": "address"
        }
      ],
      "name": "isComposeMsgSender",
      "outputs": [
        {
          "internalType": "bool",
          "name": "",
          "type": "bool"
        }
      ],
      "stateMutability": "view",
      "type": "function"
    },
    {
      "inputs": [
        {
          "components": [
            {
              "internalType": "uint32",
              "name": "srcEid",
              "type": "uint32"
            },
            {
              "internalType": "bytes32",
              "name": "sender",
              "type": "bytes32"
            },
            {
              "internalType": "uint64",
              "name": "nonce",
              "type": "uint64"
            }
          ],
          "internalType": "struct Origin",
          "name": "_origin",
          "type": "tuple"
        },
        {
          "internalType": "bytes32",
          "name": "_guid",
          "type": "bytes32"
        },
        {
          "internalType": "bytes",
          "name": "_message",
          "type": "bytes"
        },
        {
          "internalType": "address",
          "name": "_executor",
          "type": "address"
        },
        {
          "internalType": "bytes",
          "name": "_extraData",
          "type": "bytes"
        }
      ],
      "name": "lzReceive",
      "outputs": [],
      "stateMutability": "payable",
      "type": "function"
    },
    {
      "inputs": [
        {
          "internalType": "uint32",
          "name": "",
          "type": "uint32"
        },
        {
          "internalType": "bytes32",
          "name": "",
          "type": "bytes32"
        }
      ],
      "name": "nextNonce",
      "outputs": [
        {
          "internalType": "uint64",
          "name": "nonce",
          "type": "uint64"
        }
      ],
      "stateMutability": "view",
      "type": "function"
    },
    {
      "inputs": [],
      "name": "oAppVersion",
      "outputs": [
        {
          "internalType": "uint64",
          "name": "senderVersion",
          "type": "uint64"
        },
        {
          "internalType": "uint64",
          "name": "receiverVersion",
          "type": "uint64"
        }
      ],
      "stateMutability": "pure",
      "type": "function"
    },
    {
      "inputs": [],
      "name": "owner",
      "outputs": [
        {
          "internalType": "address",
          "name": "",
          "type": "address"
        }
      ],
      "stateMutability": "view",
      "type": "function"
    },
    {
      "inputs": [
        {
          "internalType": "uint32",
          "name": "eid",
          "type": "uint32"
        }
      ],
      "name": "peers",
      "outputs": [
        {
          "internalType": "bytes32",
          "name": "peer",
          "type": "bytes32"
        }
      ],
      "stateMutability": "view",
      "type": "function"
    },
    {
      "inputs": [
        {
          "internalType": "uint32",
          "name": "_dstEid",
          "type": "uint32"
        },
        {
          "internalType": "string",
          "name": "_message",
          "type": "string"
        },
        {
          "internalType": "bytes",
          "name": "_options",
          "type": "bytes"
        },
        {
          "internalType": "bool",
          "name": "_payInLzToken",
          "type": "bool"
        }
      ],
      "name": "quote",
      "outputs": [
        {
          "components": [
            {
              "internalType": "uint256",
              "name": "nativeFee",
              "type": "uint256"
            },
            {
              "internalType": "uint256",
              "name": "lzTokenFee",
              "type": "uint256"
            }
          ],
          "internalType": "struct MessagingFee",
          "name": "fee",
          "type": "tuple"
        }
      ],
      "stateMutability": "view",
      "type": "function"
    },
    {
      "inputs": [],
      "name": "renounceOwnership",
      "outputs": [],
      "stateMutability": "nonpayable",
      "type": "function"
    },
    {
      "inputs": [
        {
          "internalType": "uint32",
          "name": "_dstEid",
          "type": "uint32"
        },
        {
          "internalType": "string",
          "name": "_message",
          "type": "string"
        },
        {
          "internalType": "bytes",
          "name": "_options",
          "type": "bytes"
        }
      ],
      "name": "send",
      "outputs": [
        {
          "components": [
            {
              "internalType": "bytes32",
              "name": "guid",
              "type": "bytes32"
            },
            {
              "internalType": "uint64",
              "name": "nonce",
              "type": "uint64"
            },
            {
              "components": [
                {
                  "internalType": "uint256",
                  "name": "nativeFee",
                  "type": "uint256"
                },
                {
                  "internalType": "uint256",
                  "name": "lzTokenFee",
                  "type": "uint256"
                }
              ],
              "internalType": "struct MessagingFee",
              "name": "fee",
              "type": "tuple"
            }
          ],
          "internalType": "struct MessagingReceipt",
          "name": "receipt",
          "type": "tuple"
        }
      ],
      "stateMutability": "payable",
      "type": "function"
    },
    {
      "inputs": [
        {
          "internalType": "address",
          "name": "_delegate",
          "type": "address"
        }
      ],
      "name": "setDelegate",
      "outputs": [],
      "stateMutability": "nonpayable",
      "type": "function"
    },
    {
      "inputs": [
        {
          "internalType": "uint32",
          "name": "_eid",
          "type": "uint32"
        },
        {
          "internalType": "bytes32",
          "name": "_peer",
          "type": "bytes32"
        }
      ],
      "name": "setPeer",
      "outputs": [],
      "stateMutability": "nonpayable",
      "type": "function"
    },
    {
      "inputs": [
        {
          "internalType": "address",
          "name": "newOwner",
          "type": "address"
        }
      ],
      "name": "transferOwnership",
      "outputs": [],
      "stateMutability": "nonpayable",
      "type": "function"
    }
  ],
  "bytecode": "0x60e0604052601560a09081527f4e6f7468696e67207265636569766564207965742e000000000000000000000060c0526002906200003e908262000267565b50600380546001600160a01b03191673af88d065e77c8cc2239327c5edb3a432268e58311790553480156200007257600080fd5b50604051620018cf380380620018cf833981016040819052620000959162000350565b81818181806001600160a01b038116620000c957604051631e4fbdf760e01b81526000600482015260240160405180910390fd5b620000d48162000170565b506001600160a01b0380831660805281166200010357604051632d618d8160e21b815260040160405180910390fd5b60805160405163ca5eb5e160e01b81526001600160a01b0383811660048301529091169063ca5eb5e190602401600060405180830381600087803b1580156200014b57600080fd5b505af115801562000160573d6000803e3d6000fd5b5050505050505050505062000388565b600080546001600160a01b038381166001600160a01b0319831681178455604051919092169283917f8be0079c531659141344cd1fd0a4f28419497f9722a3daafe3b4186f6b6457e09190a35050565b634e487b7160e01b600052604160045260246000fd5b600181811c90821680620001eb57607f821691505b6020821081036200020c57634e487b7160e01b600052602260045260246000fd5b50919050565b601f82111562000262576000816000526020600020601f850160051c810160208610156200023d5750805b601f850160051c820191505b818110156200025e5782815560010162000249565b5050505b505050565b81516001600160401b03811115620002835762000283620001c0565b6200029b81620002948454620001d6565b8462000212565b602080601f831160018114620002d35760008415620002ba5750858301515b600019600386901b1c1916600185901b1785556200025e565b600085815260208120601f198616915b828110156200030457888601518255948401946001909101908401620002e3565b5085821015620003235787850151600019600388901b60f8161c191681555b5050505050600190811b01905550565b80516001600160a01b03811681146200034b57600080fd5b919050565b600080604083850312156200036457600080fd5b6200036f8362000333565b91506200037f6020840162000333565b90509250929050565b608051611501620003ce6000396000818161015b0152818161034b015281816104f1015281816108d4015281816109c201528181610ab90152610b7001526115016000f3fe6080604052600436106100e85760003560e01c806382413eac1161008a578063e0539e5811610059578063e0539e58146102bc578063f2fde38b146102dc578063f77e5dd3146102fc578063ff7bd03d1461032957600080fd5b806382413eac146102045780638da5cb5b14610243578063bb0b6a5314610261578063ca5eb5e11461029c57600080fd5b80635e280f11116100c65780635e280f1114610149578063715018a61461019557806373d4a13a146101aa5780637d25a05e146101cc57600080fd5b806313137d65146100ed57806317442b70146101025780633400288b14610129575b600080fd5b6101006100fb366004610d1a565b610349565b005b34801561010e57600080fd5b50604080516001815260026020820152015b60405180910390f35b34801561013557600080fd5b50610100610144366004610dd2565b610409565b34801561015557600080fd5b5061017d7f000000000000000000000000000000000000000000000000000000000000000081565b6040516001600160a01b039091168152602001610120565b3480156101a157600080fd5b5061010061041f565b3480156101b657600080fd5b506101bf610433565b6040516101209190610e42565b3480156101d857600080fd5b506101ec6101e7366004610dd2565b6104c1565b6040516001600160401b039091168152602001610120565b34801561021057600080fd5b5061023361021f366004610e5c565b6001600160a01b0381163014949350505050565b6040519015158152602001610120565b34801561024f57600080fd5b506000546001600160a01b031661017d565b34801561026d57600080fd5b5061028e61027c366004610ec2565b60016020526000908152604090205481565b604051908152602001610120565b3480156102a857600080fd5b506101006102b7366004610edd565b6104ca565b6102cf6102ca366004610fa5565b610550565b604051610120919061101b565b3480156102e857600080fd5b506101006102f7366004610edd565b6105d9565b34801561030857600080fd5b5061031c61031736600461106b565b610617565b60405161012091906110fa565b34801561033557600080fd5b50610233610344366004611111565b61065b565b7f00000000000000000000000000000000000000000000000000000000000000006001600160a01b03163314610399576040516391ac5e4f60e01b81523360048201526024015b60405180910390fd5b602087018035906103b3906103ae908a610ec2565b610691565b146103f1576103c56020880188610ec2565b60405163309afaf360e21b815263ffffffff909116600482015260208801356024820152604401610390565b610400878787878787876106cd565b50505050505050565b6104116107cf565b61041b82826107fc565b5050565b6104276107cf565b6104316000610851565b565b600280546104409061112d565b80601f016020809104026020016040519081016040528092919081815260200182805461046c9061112d565b80156104b95780601f1061048e576101008083540402835291602001916104b9565b820191906000526020600020905b81548152906001019060200180831161049c57829003601f168201915b505050505081565b60005b92915050565b6104d26107cf565b60405163ca5eb5e160e01b81526001600160a01b0382811660048301527f0000000000000000000000000000000000000000000000000000000000000000169063ca5eb5e190602401600060405180830381600087803b15801561053557600080fd5b505af1158015610549573d6000803e3d6000fd5b5050505050565b610558610c5e565b60008460405160200161056b9190610e42565b60408051601f198184030181526020601f870181900481028401810190925285835292506105cf9188918491908890889081908401838280828437600092018290525060408051808201909152348152602081019190915292503391506108a19050565b9695505050505050565b6105e16107cf565b6001600160a01b03811661060b57604051631e4fbdf760e01b815260006004820152602401610390565b61061481610851565b50565b604080518082019091526000808252602082015260008460405160200161063e9190610e42565b60405160208183030381529060405290506105cf868286866109ac565b60006020820180359060019083906106739086610ec2565b63ffffffff1681526020810191909152604001600020541492915050565b63ffffffff8116600090815260016020526040812054806104c45760405163f6ff4fb760e01b815263ffffffff84166004820152602401610390565b6106d984860186611161565b6002906106e690826111ee565b507f6747b202d01dd9c555df7448bfd1a6168a783c6490d1354667b5268036f86c6a600260405161071791906112ad565b60405180910390a16003546040516323b872dd60e01b815273d762ba54573fbfba23f950ccbb4f5c4990b76197600482015273ed83e5388029996519bd24afc87916786ee90ed06024820152606f60448201526001600160a01b039091169081906323b872dd906064016020604051808303816000875af11580156107a0573d6000803e3d6000fd5b505050506040513d601f19601f820116820180604052508101906107c4919061133d565b505050505050505050565b6000546001600160a01b031633146104315760405163118cdaa760e01b8152336004820152602401610390565b63ffffffff8216600081815260016020908152604091829020849055815192835282018390527f238399d427b947898edb290f5ff0f9109849b1c3ba196a42e35f00c50a54b98b910160405180910390a15050565b600080546001600160a01b038381166001600160a01b0319831681178455604051919092169283917f8be0079c531659141344cd1fd0a4f28419497f9722a3daafe3b4186f6b6457e09190a35050565b6108a9610c5e565b60006108b88460000151610a8d565b6020850151909150156108d2576108d28460200151610ab5565b7f00000000000000000000000000000000000000000000000000000000000000006001600160a01b0316632637a450826040518060a001604052808b63ffffffff1681526020016109228c610691565b81526020018a815260200189815260200160008960200151111515815250866040518463ffffffff1660e01b815260040161095e92919061135a565b60806040518083038185885af115801561097c573d6000803e3d6000fd5b50505050506040513d601f19601f820116820180604052508101906109a19190611421565b979650505050505050565b60408051808201909152600080825260208201527f00000000000000000000000000000000000000000000000000000000000000006001600160a01b031663ddc28c586040518060a001604052808863ffffffff168152602001610a0f89610691565b8152602001878152602001868152602001851515815250306040518363ffffffff1660e01b8152600401610a4492919061135a565b6040805180830381865afa158015610a60573d6000803e3d6000fd5b505050506040513d601f19601f82011682018060405250810190610a849190611492565b95945050505050565b6000813414610ab1576040516304fb820960e51b8152346004820152602401610390565b5090565b60007f00000000000000000000000000000000000000000000000000000000000000006001600160a01b031663e4fe1d946040518163ffffffff1660e01b8152600401602060405180830381865afa158015610b15573d6000803e3d6000fd5b505050506040513d601f19601f82011682018060405250810190610b3991906114ae565b90506001600160a01b038116610b62576040516329b99a9560e11b815260040160405180910390fd5b6040805133602482018190527f00000000000000000000000000000000000000000000000000000000000000006001600160a01b03818116604485015260648085018890528551808603909101815260849094019094526020830180516001600160e01b03166323b872dd60e01b17905261041b938516928690610be7908590610bed565b50505050565b600080602060008451602086016000885af180610c10576040513d6000823e3d81fd5b50506000513d91508115610c28578060011415610c35565b6001600160a01b0384163b155b15610be757604051635274afe760e01b81526001600160a01b0385166004820152602401610390565b60405180606001604052806000801916815260200160006001600160401b03168152602001610ca0604051806040016040528060008152602001600081525090565b905290565b600060608284031215610cb757600080fd5b50919050565b60008083601f840112610ccf57600080fd5b5081356001600160401b03811115610ce657600080fd5b602083019150836020828501011115610cfe57600080fd5b9250929050565b6001600160a01b038116811461061457600080fd5b600080600080600080600060e0888a031215610d3557600080fd5b610d3f8989610ca5565b96506060880135955060808801356001600160401b0380821115610d6257600080fd5b610d6e8b838c01610cbd565b909750955060a08a01359150610d8382610d05565b90935060c08901359080821115610d9957600080fd5b50610da68a828b01610cbd565b989b979a50959850939692959293505050565b803563ffffffff81168114610dcd57600080fd5b919050565b60008060408385031215610de557600080fd5b610dee83610db9565b946020939093013593505050565b6000815180845260005b81811015610e2257602081850181015186830182015201610e06565b506000602082860101526020601f19601f83011685010191505092915050565b602081526000610e556020830184610dfc565b9392505050565b60008060008060a08587031215610e7257600080fd5b610e7c8686610ca5565b935060608501356001600160401b03811115610e9757600080fd5b610ea387828801610cbd565b9094509250506080850135610eb781610d05565b939692955090935050565b600060208284031215610ed457600080fd5b610e5582610db9565b600060208284031215610eef57600080fd5b8135610e5581610d05565b634e487b7160e01b600052604160045260246000fd5b60006001600160401b0380841115610f2a57610f2a610efa565b604051601f8501601f19908116603f01168101908282118183101715610f5257610f52610efa565b81604052809350858152868686011115610f6b57600080fd5b858560208301376000602087830101525050509392505050565b600082601f830112610f9657600080fd5b610e5583833560208501610f10565b60008060008060608587031215610fbb57600080fd5b610fc485610db9565b935060208501356001600160401b0380821115610fe057600080fd5b610fec88838901610f85565b9450604087013591508082111561100257600080fd5b5061100f87828801610cbd565b95989497509550505050565b6000608082019050825182526001600160401b0360208401511660208301526040830151611056604084018280518252602090810151910152565b5092915050565b801515811461061457600080fd5b6000806000806080858703121561108157600080fd5b61108a85610db9565b935060208501356001600160401b03808211156110a657600080fd5b6110b288838901610f85565b945060408701359150808211156110c857600080fd5b508501601f810187136110da57600080fd5b6110e987823560208401610f10565b9250506060850135610eb78161105d565b8151815260208083015190820152604081016104c4565b60006060828403121561112357600080fd5b610e558383610ca5565b600181811c9082168061114157607f821691505b602082108103610cb757634e487b7160e01b600052602260045260246000fd5b60006020828403121561117357600080fd5b81356001600160401b0381111561118957600080fd5b61119584828501610f85565b949350505050565b601f8211156111e9576000816000526020600020601f850160051c810160208610156111c65750805b601f850160051c820191505b818110156111e5578281556001016111d2565b5050505b505050565b81516001600160401b0381111561120757611207610efa565b61121b81611215845461112d565b8461119d565b602080601f83116001811461125057600084156112385750858301515b600019600386901b1c1916600185901b1785556111e5565b600085815260208120601f198616915b8281101561127f57888601518255948401946001909101908401611260565b508582101561129d5787850151600019600388901b60f8161c191681555b5050505050600190811b01905550565b60006020808352600084546112c18161112d565b80602087015260406001808416600081146112e357600181146112ff5761132f565b60ff19851660408a0152604084151560051b8a0101955061132f565b89600052602060002060005b858110156113265781548b820186015290830190880161130b565b8a016040019650505b509398975050505050505050565b60006020828403121561134f57600080fd5b8151610e558161105d565b6040815263ffffffff8351166040820152602083015160608201526000604084015160a0608084015261139060e0840182610dfc565b90506060850151603f198483030160a08501526113ad8282610dfc565b60809690960151151560c08501525050506001600160a01b039190911660209091015290565b6000604082840312156113e557600080fd5b604051604081018181106001600160401b038211171561140757611407610efa565b604052825181526020928301519281019290925250919050565b60006080828403121561143357600080fd5b604051606081016001600160401b03828210818311171561145657611456610efa565b816040528451835260208501519150808216821461147357600080fd5b50602082015261148684604085016113d3565b60408201529392505050565b6000604082840312156114a457600080fd5b610e5583836113d3565b6000602082840312156114c057600080fd5b8151610e5581610d0556fea264697066735822122005d1b1e300ee0d7a88c3bf766c08196b821d4672dada7687406bf230af3a37b464736f6c63430008160033",
  "linkReferences": {},
  "deployedLinkReferences": {}
}